{
  "_format": "hh-sol-artifact-1",
  "contractName": "Greeter",
  "sourceName": "contracts/Greeter.sol",
  "abi": [
    {
      "inputs": [
        {
          "internalType": "address",
          "name": "semaphoreAddress",
          "type": "address"
        },
        {
          "internalType": "uint256",
          "name": "_groupId",
          "type": "uint256"
        }
      ],
      "stateMutability": "nonpayable",
      "type": "constructor"
    },
    {
      "anonymous": false,
      "inputs": [
        {
          "indexed": false,
          "internalType": "bytes32",
          "name": "greeting",
          "type": "bytes32"
        }
      ],
      "name": "NewGreeting",
      "type": "event"
    },
    {
      "anonymous": false,
      "inputs": [
        {
          "indexed": false,
          "internalType": "uint256",
          "name": "identityCommitment",
          "type": "uint256"
        },
        {
          "indexed": false,
          "internalType": "bytes32",
          "name": "username",
          "type": "bytes32"
        }
      ],
      "name": "NewUser",
      "type": "event"
    },
    {
      "inputs": [
        {
          "internalType": "uint256",
          "name": "",
          "type": "uint256"
        }
      ],
      "name": "ballot",
      "outputs": [
        {
          "internalType": "bytes32",
          "name": "",
          "type": "bytes32"
        }
      ],
      "stateMutability": "view",
      "type": "function"
    },
    {
      "inputs": [
        {
          "internalType": "bytes32",
          "name": "vote",
          "type": "bytes32"
        },
        {
          "internalType": "uint256",
          "name": "merkleTreeRoot",
          "type": "uint256"
        },
        {
          "internalType": "uint256",
          "name": "nullifierHash",
          "type": "uint256"
        },
        {
          "internalType": "uint256[8]",
          "name": "proof",
          "type": "uint256[8]"
        }
      ],
      "name": "greet",
      "outputs": [],
      "stateMutability": "nonpayable",
      "type": "function"
    },
    {
      "inputs": [
        {
          "internalType": "uint256",
          "name": "identityCommitment",
          "type": "uint256"
        },
        {
          "internalType": "bytes32",
          "name": "username",
          "type": "bytes32"
        }
      ],
      "name": "joinGroup",
      "outputs": [],
      "stateMutability": "nonpayable",
      "type": "function"
    },
    {
      "inputs": [],
      "name": "seeBallot",
      "outputs": [
        {
          "internalType": "bytes32[]",
          "name": "",
          "type": "bytes32[]"
        }
      ],
      "stateMutability": "view",
      "type": "function"
    },
    {
      "inputs": [],
      "name": "semaphore",
      "outputs": [
        {
          "internalType": "contract ISemaphore",
          "name": "",
          "type": "address"
        }
      ],
      "stateMutability": "view",
      "type": "function"
    }
  ],
  "bytecode": "0x60806040523480156200001157600080fd5b5060405162000a3038038062000a3083398181016040528101906200003791906200014d565b816000806101000a81548173ffffffffffffffffffffffffffffffffffffffff021916908373ffffffffffffffffffffffffffffffffffffffff1602179055508060028190555060008054906101000a900473ffffffffffffffffffffffffffffffffffffffff1673ffffffffffffffffffffffffffffffffffffffff1663059f1bb560025460146000306040518563ffffffff1660e01b8152600401620000e39493929190620001d2565b600060405180830381600087803b158015620000fe57600080fd5b505af115801562000113573d6000803e3d6000fd5b505050505050620002b9565b600081519050620001308162000285565b92915050565b60008151905062000147816200029f565b92915050565b600080604083850312156200016157600080fd5b600062000171858286016200011f565b9250506020620001848582860162000136565b9150509250929050565b62000199816200021f565b82525050565b620001aa816200025d565b82525050565b620001bb8162000271565b82525050565b620001cc8162000253565b82525050565b6000608082019050620001e96000830187620001c1565b620001f86020830186620001b0565b6200020760408301856200019f565b6200021660608301846200018e565b95945050505050565b60006200022c8262000233565b9050919050565b600073ffffffffffffffffffffffffffffffffffffffff82169050919050565b6000819050919050565b60006200026a8262000253565b9050919050565b60006200027e8262000253565b9050919050565b62000290816200021f565b81146200029c57600080fd5b50565b620002aa8162000253565b8114620002b657600080fd5b50565b61076780620002c96000396000f3fe608060405234801561001057600080fd5b50600436106100575760003560e01c8063565a76fc1461005c5780637b5d25341461007a578063a3867d9114610098578063a3a8e3c5146100b4578063e7942734146100d0575b600080fd5b610064610100565b6040516100719190610557565b60405180910390f35b610082610158565b60405161008f9190610594565b60405180910390f35b6100b260048036038101906100ad9190610458565b61017c565b005b6100ce60048036038101906100c991906103cb565b610260565b005b6100ea60048036038101906100e5919061042f565b61035f565b6040516100f79190610579565b60405180910390f35b6060600180548060200260200160405190810160405280929190818152602001828054801561014e57602002820191906000526020600020905b81548152602001906001019080831161013a575b5050505050905090565b60008054906101000a900473ffffffffffffffffffffffffffffffffffffffff1681565b60008054906101000a900473ffffffffffffffffffffffffffffffffffffffff1673ffffffffffffffffffffffffffffffffffffffff16631783efc3600254846040518363ffffffff1660e01b81526004016101d99291906105d8565b600060405180830381600087803b1580156101f357600080fd5b505af1158015610207573d6000803e3d6000fd5b505050508060036000848152602001908152602001600020819055507fa50a3b4d29437818306d1859dff6fb2b1884a4f487bd1d91a8cc026ac4c9453782826040516102549291906105af565b60405180910390a15050565b60008054906101000a900473ffffffffffffffffffffffffffffffffffffffff1673ffffffffffffffffffffffffffffffffffffffff16638b69310a600254858786600254876040518763ffffffff1660e01b81526004016102c796959493929190610601565b600060405180830381600087803b1580156102e157600080fd5b505af11580156102f5573d6000803e3d6000fd5b5050505060018490806001815401808255809150506001900390600052602060002001600090919091909150557fdca4fe235351d51f8e3444599c9a1afc6d12397dcdc4fd5df11bb6cfe0eb5a77846040516103519190610579565b60405180910390a150505050565b6001818154811061036f57600080fd5b906000526020600020016000915090505481565b60008190508260206008028201111561039b57600080fd5b92915050565b6000813590506103b081610703565b92915050565b6000813590506103c58161071a565b92915050565b60008060008061016085870312156103e257600080fd5b60006103f0878288016103a1565b9450506020610401878288016103b6565b9350506040610412878288016103b6565b925050606061042387828801610383565b91505092959194509250565b60006020828403121561044157600080fd5b600061044f848285016103b6565b91505092915050565b6000806040838503121561046b57600080fd5b6000610479858286016103b6565b925050602061048a858286016103a1565b9150509250929050565b60006104a0838361051b565b60208301905092915050565b60006104b782610673565b6104c1818561068b565b93506104cc83610663565b8060005b838110156104fd5781516104e48882610494565b97506104ef8361067e565b9250506001810190506104d0565b5085935050505092915050565b61051761010083836106f4565b5050565b6105248161069c565b82525050565b6105338161069c565b82525050565b610542816106d0565b82525050565b610551816106c6565b82525050565b6000602082019050818103600083015261057181846104ac565b905092915050565b600060208201905061058e600083018461052a565b92915050565b60006020820190506105a96000830184610539565b92915050565b60006040820190506105c46000830185610548565b6105d1602083018461052a565b9392505050565b60006040820190506105ed6000830185610548565b6105fa6020830184610548565b9392505050565b60006101a0820190506106176000830189610548565b6106246020830188610548565b610631604083018761052a565b61063e6060830186610548565b61064b6080830185610548565b61065860a083018461050a565b979650505050505050565b6000819050602082019050919050565b600081519050919050565b6000602082019050919050565b600082825260208201905092915050565b6000819050919050565b600073ffffffffffffffffffffffffffffffffffffffff82169050919050565b6000819050919050565b60006106db826106e2565b9050919050565b60006106ed826106a6565b9050919050565b82818337600083830152505050565b61070c8161069c565b811461071757600080fd5b50565b610723816106c6565b811461072e57600080fd5b5056fea26469706673582212201c12fcb10bd74325746fa6792561f42735751ff59a414cc79efdba2de2e4de9864736f6c63430008040033",
  "linkReferences": {},
  "deployedLinkReferences": {}
}